:020000040800F2
:10000000985E002075020008B5020008B7020008DB
:10001000B9020008BB020008BD0200080000000091
:10002000000000000000000000000000DD010008EA
:10003000BF02000800000000210200089923000808
:100040008F0200088F0200088F0200088F0200084C
:100050008F0200088F0200088F0200088F0200083C
:100060008F0200088F0200088F0200088F0200082C
:100070008F0200088F0200088F0200088F0200081C
:100080008F0200088F0200088F0200088F0200080C
:100090008F0200088F0200088F0200088F020008FC
:1000A0008F0200088F0200088F0200088F020008EC
:1000B0008F0200088F0200088F0200088F020008DC
:1000C0008F0200088F0200088F0200088F020008CC
:1000D0008F0200088F0200088F020008AB29000879
:1000E0008F0200088F0200088F0200088F020008AC
:1000F0008F0200088F0200088F0200088F0200089C
:100100008F0200088F0200088F0200088F0200088B
:100110008F0200088F0200088F0200088F0200087B
:100120008F0200088F0200088F0200088F0200086B
:1001300000F002F800F042F80AA090E8000C8244B7
:100140008344AAF10107DA4501D100F037F8AFF294
:10015000090EBAE80F0013F0010F18BFFB1A43F0A5
:1001600001031847E843000008440000103A24BF88
:1001700078C878C1FAD8520724BF30C830C144BF0C
:1001800004680C607047000000230024002500264E
:10019000103A28BF78C1FBD8520728BF30C148BFEA
:1001A0000B607047752903F05982632903F0A5831A
:1001B000002070471FB51FBD10B510BD03F024FC13
:1001C0001146FFF7F7FF03F091F903F042FC03B487
:1001D000FFF7F2FF03BC03F049FC0000224B196853
:1001E0000868B0E8F00F80F30988BFF36F8F4FF015
:1001F000000080F311884EF00D0E704700000000E3
:1002000006480068006880F3088862B661B6BFF3EC
:100210004F8FBFF36F8F00DF00BF00BF08ED00E01E
:10022000EFF30980BFF36F8F0F4B1A6820E9F00FCF
:10023000106008B54FF0500080F31188BFF34F8F66
:10024000BFF36F8F00F064FF4FF0000080F3118860
:10025000BDE8084019680868B0E8F00F80F3098825
:10026000BFF36F8F704700BF14000020EFF30580CD
:10027000704700000948804709480047FEE7FEE74D
:10028000FEE7FEE7FEE7FEE7FEE7FEE7FEE7FEE746
:1002900004480549054A064B704700006103000801
:1002A0003101000898580020985E0020985A0020DC
:1002B000985A00207047FEE7FEE7FEE7FEE770472A
:1002C0000CB500224C4800920192016841F4803143
:1002D00001604FF4A063016801F4003101910099BD
:1002E000491C0091019911B900999942F3D1016813
:1002F000890333D50121019140490A6842F0100277
:100300000A600A6822F003020A600A6842F00202E8
:100310000A604168416041684160416841F4806120
:100320004160416821F47C114160416841F4E81169
:100330004160016841F08071016001688901FCD56C
:10034000416821F003014160416841F002014160D0
:100350004168C1F381010229FAD10CBD01920CBDA3
:10036000254810B5016841F0010101604168244A47
:10037000114041600168234A11400160016821F485
:1003800080210160416821F4FE0141604FF41F01AA
:100390008160FFF795FF1C494FF00060086010BDB9
:1003A000154A10B55068194B10F00C01184803D0CD
:1003B000042901D0082901D0036012E05168536874
:1003C00001F470114FF0020413F4803F04EB9141EB
:1003D00002D053689B0301D50E4B00E00B4B5943F1
:1003E000016051680A4AC1F30311121D515C026891
:1003F000CA40026010BD0000001002400020024010
:100400000000FFF8FFFFF6FE08ED00E000127A00A2
:100410000000002000093D0000F108014FF0FF320C
:10042000C0E90112C1600161002101607047002133
:100430000161704742684A6093688B6093685960B5
:10044000916008610168491C0160704730B50C6813
:10045000621C02D000F1080202E0026904E01A46C0
:1004600053681D68A542FAD953684B6099608A6049
:10047000516008610168491C016030BDD0E901325A
:1004800001699A60D0E901235A604A68824201D129
:1004900082684A60002202610868401E0860704756
:1004A00070B50D46044601F0E7FDD4E90F1220684F
:1004B00001FB020060600020A0632068A06001468C
:1004C000E06B401E00FB0210E0604FF0FF3084F84C
:1004D000440084F8450004F110004DB1FFF79CFF83
:1004E00004F12400FFF798FF01F0D7FD012070BD53
:1004F00021690029F8D001F00EF8F5E72DE9F04167
:1005000017460D00064617D006FB05F0543001F0E3
:100510001BFE04000ED004F154007DB12060C4E93C
:100520000F6520460121FFF7BBFF84F850700021C2
:100530002046A164BDE8F0810020E7E72460EEE7F3
:100540002DE9F041856B174604460026026C82B106
:10055000C7B1E06803F001F9E168206C091AE160B5
:100560002268914202D26168081AE060022F16D018
:1005700017E02068A8B9606801F09DF806460020E1
:1005800060600EE0A06803F0E8F8216CA068084401
:10059000A0606168884204D32068A06001E005B1D2
:1005A0006D1E6D1CA5633046C4E773B50026009828
:1005B000846CA06BA06BE26B90420CD294F9455016
:1005C0000A4669462046FFF7BBFF0646681C04D072
:1005D0006D1C84F8455030467CBD606A0028FAD016
:1005E00004F1240000F097FF0028F4D00126F2E780
:1005F0002DE9F041044601F03FFD94F9455004F126
:10060000240610E0A06C20B100212046FFF7CDFFAA
:1006100004E0606A48B1304600F07DFF08B100F0A8
:10062000F2FF6D1E6DB2002DECDC4FF0FF3684F84A
:10063000456001F032FD01F01FFD94F9445004F1D2
:10064000100709E0206948B1384600F064FF08B19E
:1006500000F0D9FF6D1E6DB2002DF3DC84F844600C
:10066000BDE8F04101F019BD2DE9FF4383B0984684
:1006700089460446002600F0D5FF002701F0FCFC67
:10068000A06BE16B884206D3B8F1020F03D0059846
:10069000C8B1DEB11EE0424649462046FFF750FF92
:1006A000A06C20B141462046FFF77FFF05E0606A5D
:1006B00018B104F1240000F02EFF01F0EEFC01203F
:1006C00007B0BDE8F08301F0E8FC21E0684600F0E7
:1006D00073FF012601F0E1FC00F043FC01F0CCFCCB
:1006E00094F94400401C01D184F8447094F9450009
:1006F000401C01D184F8457001F0CFFC05A9684683
:1007000000F060FF30B12046FFF772FF00F0B1FB50
:100710000020D5E701F0B0FCA06BE16B884201D16D
:10072000012500E0002501F0B8FCA5B104F110009E
:10073000059900F0BDFE2046FFF75AFF00F099FB37
:1007400000289BD1F8494FF080500860BFF34F8FCD
:10075000BFF36F8F92E72046FFF74AFF00F089FB57
:100760008CE710B5024600210120FFF7C7FE041EEA
:1007700007D00021416001600B460A46C160FFF7C7
:1007800073FF204610BD10B5044600F048FF6168B5
:1007900088420BD1E068401EE06005D100231A4674
:1007A00019462046FFF760FF012010BD002010BD54
:1007B00030B4026C0B46002A0BD0C1681144C160F2
:1007C0004468A14201D30168C16030BC184602F000
:1007D000C4BF30BC70472DE9FF4383B098468946BB
:1007E0000446002600F01EFF002701F045FCA56B23
:1007F000FDB149462046E668FFF7DAFFB8F1000F81
:100800000AD0E660606A18B104F1240000F083FEAB
:1008100001F043FC012053E76D1EA563206810B969
:1008200000F0E5FF606020690028F1D004F11000BD
:10083000ECE7059808B11EB106E001F02EFC27E0B8
:10084000684600F0B9FE012601F027FC00F089FBA4
:1008500001F012FC94F94400401C01D184F844706A
:1008600094F94500401C01D184F8457001F015FC55
:1008700005A9684600F0A6FE002820460AD0FFF72A
:10088000B7FE00F0F6FA204600F0D9F90028ACD007
:10089000002015E700F0D3F9E8B1206830B901F085
:1008A000EBFB606800F0C9FE01F0F7FB04F12400E7
:1008B000059900F0FDFD2046FFF79AFE00F0D9FAF9
:1008C000002892D198494FF080500860BFF34F8FB5
:1008D000BFF36F8F89E72046FFF78AFE00F0C9FA61
:1008E00083E770B50D46044600F099FE61688842C2
:1008F00004D1E068401CE060012070BD00232A465E
:1009000019462046FFF767FF0028F6D0E168491C2A
:10091000E16070BD10B50C4602220021FFF7EEFD2C
:10092000002800D0846310BD2DE9F0479846154695
:100930008946044601F0CDFB5020EFF3118780F388
:100940001188BFF34F8FBFF36F8FA06BE16B8842AD
:1009500007D3B8F1020F04D0002087F31188BDE857
:10096000F08794F94560424649462046FFF7E8FD86
:10097000701C04D0761C84F845600120EDE7A06C63
:10098000012620B141462046FFF70FFE06E0606ACF
:100990000028F2D004F1240000F0BDFD0028ECD0C6
:1009A000002DEAD02E60E8E72DE9F0410D4604461F
:1009B00001F08FFB5020EFF3118680F31188BFF315
:1009C0004F8FBFF36F8FA16BE06B88421FD994F9F3
:1009D0004500491CA163411C04D0401C84F845001B
:1009E000012015E0A06C012720B100212046FFF76F
:1009F000DCFD06E0606A0028F2D004F1240000F07B
:100A00008AFD0028ECD0002DEAD02F60E8E7002016
:100A100086F311888EE52DE9F04790468946044615
:100A200001F057FB5020EFF3118780F31188BFF3DB
:100A30004F8FBFF36F8FA66BF6B194F944504946C0
:100A40002046FFF7B5FE761EA663681C04D06D1C19
:100A500084F84450012010E020690028FAD004F105
:100A6000100000F058FD0028F4D0B8F1000FF1D0CC
:100A70000121C8F80010EDE7002087F311886EE728
:100A80002DE9F0410E46044601F023FB5020EFF320
:100A9000118580F31188BFF34F8FBFF36F8FA06B69
:100AA00030B131462046E768FFF782FE0120E7605B
:100AB00085F311883EE510B5044601F0DDFAA46B1C
:100AC00001F0EBFA204610BD10B5044601F0D4FA4F
:100AD000D4E90E10441A01F0E0FA204610BD806BF4
:100AE0007047124A002102EBC1035B68834206D1C2
:100AF000002042F8310002EBC10148607047491CF8
:100B00000829F0D3704710B50446FFF7EAFF2046E6
:100B1000BDE8104001F062BBC06C7047C164704713
:100B200090F850007047000004ED00E0E80000205D
:100B3000806B08B10020F5E70120F3E7816BC06B03
:100B4000814201D10120EDE70020EBE710B5424BD7
:100B5000002253F832401CB1521C082AF9D310BDB0
:100B600043F8321003EBC201486010BD10B50024F9
:100B7000394A214602EBC1035B68834202D152F835
:100B8000314002E0491C0829F4D3204610BD70B55D
:100B900015460E46044601F06FFA94F94410002001
:100BA000491C01D184F8440094F94510491C01D135
:100BB00084F8450001F071FAA06B28B92A46314645
:100BC00004F1240000F095FC2046BDE870400FE5DC
:100BD0000022042192E470B50D46044601F04CFA5F
:100BE000A06C08B9A06B08B1002401E0A564012441
:100BF00001F053FA204670BD10B50446806C88425F
:100C000001D1A06B08B1002010BD01F035FA002021
:100C1000A06401F042FA012010BD08B500230A4685
:100C200069460093FFF7D7FD009808BD08B500217D
:100C30000A4600916946FFF7EEFE009808BD10B520
:100C4000044601F019FAA06B20B1002401F025FA46
:100C5000204610BD0124F9E7E80000202DE9F0410D
:100C6000054601F009FAFB4EB068401CB0603068E0
:100C7000F94F10B1706930B32BE03560B0680128CE
:100C800027D1002404EB840007EB8000FFF7C4FBAE
:100C9000641C202CF6D3F148FFF7BEFBEF4814305C
:100CA000FFF7BAFBED482830FFF7B6FBEB483C30C6
:100CB000FFF7B2FBE9485030FFF7AEFBE74870633F
:100CC0001430B06305E03068E96AC06A884200D831
:100CD0003560706A0121401C70626864E86A32699C
:100CE00081401143316100EB800007EB8000291D3A
:100CF000FFF7A0FB01F0D1F97069002800D030683F
:100D0000BDE8F0812DE9FF5F8346DDE90E87994656
:100D100016468A46900001F017FA05001AD05C20AA
:100D200001F012FA040012D025630021CDE902413E
:100D3000CDE900874B4632465146584600F0D5FE75
:100D40002046FFF78BFF012004B0BDE8F09F284646
:100D500001F044FA4FF0FF30F6E770B5044601F0B9
:100D60008BF9BC4D04B92C68201DFFF787FB58B9DF
:100D7000E06AB94A00EB800152F8211021B9012143
:100D80008140286988432861A06A18B104F11800DD
:100D9000FFF774FB686A401C68622868844208D1C7
:100DA000AE48211D3C30FFF745FB6868401C686079
:100DB00007E0A868401EA860204600F0E7FE00F0AB
:100DC000D8FE01F06AF9686900280BD028688442CF
:100DD00008D1286BA2494FF080500860BFF34F8FB5
:100DE000BFF36F8F70BD2DE9F0479A4E4FF00009A9
:100DF000306B28B1B069401CB0614846BDE8F0874F
:100E0000F5686D1CF56009D1706B706BB16B716327
:100E1000B063306A401C306200F0ABFEB06A8542BD
:100E2000EBD3DFF834820127706B006838B1706B48
:100E3000C068C4686068854204D2B062DDE74FF0E4
:100E4000FF30FAE7201DFFF719FBA06A18B104F183
:100E50001800FFF713FBE06A326907FA00F111434B
:100E6000316100EB800108EB8100211DFFF7E2FA00
:100E7000DAE72DE9F047774D0024A146286B01F011
:100E8000FBF8286B401E2863286B98BBA868734F3B
:100E90002837012670B3DFF8C0813868E0B1F86800
:100EA000C46804F11800FFF7E9FA201DFFF7E6FA1D
:100EB000E06A2A6906FA00F11143296100EB80011A
:100EC00008EB8100211DFFF7B5FAE06A2968C96ABD
:100ED0008842E2D3EE61E0E70CB100F04AFEAC6973
:100EE0003CB1FFF780FF00B1EE61641EF9D1002034
:100EF000A861E86901F0D1F848467FE72DE9F041A3
:100F0000544E0F460446F5683068001DFFF7B6FAE8
:100F100038B9306890F82C1001208840316981433D
:100F20003161601C08D13FB13168BDE8F0414B48E8
:100F30005030091DFFF77EBA30682C44AC42446043
:100F4000316805D2B06BBDE8F041091DFFF77EBAEC
:100F5000706B091DFFF77AFAB06A844200D2B4625E
:100F6000CEE63C48016B491C0163704770B5394AB5
:100F700005460E460023106BFFF7F3FFD2682C687E
:100F8000A119944202D98C4202D804E08C4201D8C3
:100F9000914200D9012329601BB1881A0021FFF773
:100FA000ADFFFFF766FF002807D12D494FF08050B5
:100FB0000860BFF34F8FBFF36F8F70BD10B5020095
:100FC0000BD02448006BFFF7CCFF00211046FFF741
:100FD00095FFFFF74EFF002807D121494FF08050C1
:100FE0000860BFF34F8FBFF36F8F10BD70B5194E00
:100FF00005463068854201D1002070BD01F03CF803
:101000006C6901F04AF8706B844202D0B06B844284
:1010100001D1022070BD11485030844204D1A86A29
:101020000028F6D1032070BD0C483C30844202D029
:101030000CB1012070BD042070BD10B5044601F054
:101040001BF80CB903480468E46A01F026F820464E
:1010500010BD00001400002028010020A80300207B
:1010600004ED00E010B5044601F033F85020EFF332
:10107000118180F31188BFF34F8FBFF36F8F0CB9CD
:10108000FE480468E06A81F31188E1E72DE9F04148
:101090000D460446202900D31F2500F0EDFFF74E32
:1010A00004B93468E06CA8422ED0854202D9316878
:1010B0008C4200D03168E76AB84200D1E562E5644D
:1010C000A069002802DBC5F12000A061EC4D07EB10
:1010D0008701606905EB8101884215D1201DFFF76A
:1010E000CDF9012120B9306901FA07F2904330614E
:1010F000E06A326981401143316100EB800005EB09
:101100008000211DFFF796F9BDE8F04100F0C5BF52
:10111000DA4A106B10B10120D06170470020D06115
:101120001069D749B0FA80F0C0F11F0000EB8000D1
:1011300001EB800000F10803416849684160994271
:1011400001D149684160C8681060704770B50446B5
:1011500000F092FFC94D04B92C68201DFFF78EF9ED
:1011600058B9E06AC64A00EB800152F8211021B953
:1011700001218140286988432861A06A18B104F1DF
:101180001800FFF77BF9211DBE48FFF753F900F067
:1011900084FF686928B100F06FFF00F0EAFC00F0FE
:1011A0007CFF286884420AD1686948B1286BB64937
:1011B0004FF080500860BFF34F8FBFF36F8F70BD4B
:1011C000B048A9680068884202D10020286070BD3C
:1011D000BDE870409CE770B504001FD0A74D28689B
:1011E00084421BD000F048FF204600F0D9FC88B1B3
:1011F000201DFFF743F9E06A01212A69814011436C
:1012000029619F4900EB800001EB8000211DFFF761
:1012100011F92868BDE8704000F03FBF70BD2DE9AE
:10122000F0410446002600F054FF5020EFF31185F2
:1012300080F31188BFF34F8FBFF36F8F204600F00C
:10124000AFFCF0B18D4F386B20B18E4804F118011E
:10125000283814E0E06A3968C96A884200D3012658
:10126000201DFFF70BF9E06A01213A698140114323
:101270003961834900EB800001EB8000211DFFF7FD
:10128000D9F885F3118830463AE54FF080557E4C09
:1012900000F094FC2560BFF34F8FBFF36F8FF7E72B
:1012A0001CB5764800242C30CDE90040234682222C
:1012B00076A17848FFF726FD012815D100F06BFDD7
:1012C000012811D1502080F31188BFF34F8FBFF355
:1012D0006F8F6A484FF0FF31816201214161C46024
:1012E000BDE81C4000F091BE1CBD502080F3118869
:1012F000BFF34F8FBFF36F8F60490020486100F04C
:10130000BABE5E48C068704710B500F0E2FE5B48A8
:10131000C0689DE659488068704708B9574800681A
:10132000343070472DE9F0471E4691460C460700C1
:101330000ED0054605F13400C4E90050E86A20618A
:10134000286BE061686CA060207B032803D00AE072
:101350004A480568EEE7FFF704FEA86A08B10220D4
:101360002073FFF786FD4FF00008E86CC4E905081C
:10137000052E01D0267303E03846FFF737FE2073B1
:10138000B9F1000F0AD00021286B01E0401C491C74
:101390000278A52AFAD0880820842FE5A4F82080B6
:1013A0002CE52DE9F0478146086892460C46002559
:1013B000F8B1486801F1080640684860B04201D1C0
:1013C00040684860D0F80C80606842686260B24251
:1013D00001D151686160606805EBC50109EB8101CD
:1013E000C768534601223846FFF79CFF6D1C4745EE
:1013F000EAD1284602E52DE9F04717460A46064697
:1014000000242025FFF7ADFDDFF87080D8F8080034
:10141000824249D3DFF868906D1E05EB850104EB2D
:10142000C40009EB810106EB80000122FFF7B9FF40
:101430000444002DF0D104EBC40006EB800002222E
:101440004546D8F83410FFF7ACFF044404EBC40061
:1014500006EB80000222A96BFFF7A3FF04440949B1
:1014600004EBC40006EB800004221439FFF799FF57
:10147000044404EBC40006EB80000DE014000020DF
:1014800028010020F803002004ED00E049444C4509
:10149000000000008B1200080322FE49FFF781FFC5
:1014A00004440FB100203860FFF7E3FC2046A5E4B8
:1014B000024610B5F8480C46016810461831FEF790
:1014C000C5FF2046BDE81040012117E510B5F24BDD
:1014D00014460246186B41F000401968886119688B
:1014E00010461831FEF7A6FF2046BDE81040012146
:1014F00004E570B515460246E7480C4601681046FB
:101500001831FEF797FF0DB14FF0FF342946204602
:10151000BDE87040F2E42DE9F041C068C46804F110
:1015200018000746FEF7AAFFDB4D286B012660B1C5
:10153000D84839462838FEF77DFFE06A2968C96A2D
:10154000884212D90120EE610AE5201DFEF796FFC0
:10155000E06A2A6906FA00F111432961CF4900EBDC
:10156000800001EB8000211DE5E70020F8E470B564
:10157000C94D2A6B41F000410160C468FEF77EFF4F
:10158000201DFEF77BFFE06A01262A6906FA00F1BA
:1015900011432961C14900EB800001EB8000211D4E
:1015A000FEF748FFE06A2968C96A884202D901202B
:1015B000EE6170BD002070BDB7490A6A0260C9685B
:1015C0004160704770B50D46044600F055FDB249C4
:1015D000CA682868431C0FD02368096A8B4202D06E
:1015E000616891420AD96168511A814206D2401A53
:1015F00028602046FFF7E0FF002400E0012400F00F
:101600004CFD204670BDA4490120C86170470028E8
:1016100000D0806C7047002800D0816470479E48DD
:10162000006870479C48416919B1006B18B10020EF
:101630007047012070470220704770B5040039D010
:10164000954DE06A2968C96A884233D2A0690028AA
:1016500004DB2868C06AC0F12000A061E06A8F4EF8
:1016600000EB8000616906EB800081421FD1201DE4
:10167000FEF704FF012150B9E06A00EB800256F842
:10168000222022B92A6901FA00F082432A612868DF
:10169000C06AE0622A6981401143296100EB800041
:1016A00006EB8000211DBDE87040FEF7C3BE286830
:1016B000C06AE06270BD70B504004FF000002DD02C
:1016C000754D2968216D491E2165E36CE26A9A42D5
:1016D00024D0002922D1201DFEF7D0FE6F4901221F
:1016E00050B9E06A00EB800351F8233023B92B692D
:1016F00002FA00F083432B61E06CE062C0F120004D
:10170000A061E06A2B6982401A432A6100EB8000E5
:1017100001EB8000211DFEF78DFE012070BD2DE93B
:10172000FF410027054607705B4881680291806889
:1017300000EBC000800000F007FD06004BD0002247
:101740000299FFF758FECDE9020738463AE000EB70
:10175000C00006EB8001087B01280FD002280FD0C3
:1017600003280FD004280FD000244968284601F030
:10177000B1FF284601F0D2FF202109E05224F4E70E
:101780004224F2E75324F0E74424EEE72954401CB6
:101790000F28FBD32F540544039800EBC00006EB41
:1017A00080008268018CCDE90012036922463CA1C9
:1017B000284601F0E1FE284601F0B0FF05440398F9
:1017C000401C039002998842C1D304B03046BDE862
:1017D000F04100F003BDBDE8FF812F4908680A68A9
:1017E0008069D26A0968C2F120028A6170472A4979
:1017F000086818B10868026D521C026508687047D5
:1018000070B50C46064600F037FC234D2868406D45
:1018100080B92968012081F858005CB10121204677
:10182000FFF76CFB22494FF080500860BFF34F8FE9
:10183000BFF36F8F00F031FC00F01EFC2868446D90
:10184000002034B116B12968486502E02A68611E9B
:101850005165296881F8580000F01FFC204670BDD2
:101860002DE9F0411E4615468846074600F004FC67
:10187000094C206890F85800022825D02068416D56
:10188000B94341652168012081F85800E6B1012182
:1018900030460FE0F803002014000020280100204B
:1018A0000925630925750925750925750D0A0000A7
:1018B00004ED00E0FFF722FBD3494FF080500860B1
:1018C000BFF34F8FBFF36F8F00F0E7FB00F0D4FB47
:1018D00015B12068406D2860206890F858000128F4
:1018E0000DD02068416D21EA08014165012521687C
:1018F000002081F8580000F0D0FB2846C4E4002501
:10190000F5E72DE9F0411F4690460D4604460126B5
:1019100000F0B2FB0FB1606D386094F858000221FE
:1019200084F85810B8F1050F0ED2DFE808F00D0367
:10193000060C0A00616D294301E0616D491C616577
:1019400002E0022803D06565012802D014E00026D9
:1019500012E0201DFEF792FDAC4DE06A01212A69DC
:10196000814011432961AA4900EB800001EB80000E
:10197000211DFEF75FFD286800F08FFB304683E4F1
:101980002DE9F0471F4692460D4604464FF00108E8
:10199000DDF8209000F09DFB5020EFF3118680F3DE
:1019A0001188BFF34F8FBFF36F8F0FB1606D386039
:1019B00094F85800022184F85810BAF1050F0ED29D
:1019C000DFE80AF00D03060C0A00616D294301E00F
:1019D000616D491C616502E0022803D0656501283C
:1019E00003D027E04FF0000824E0884D286B012742
:1019F00078B104F118018748FEF71CFDE06A2968F8
:101A0000C96A884216D9B9F1000F12D0C9F800701E
:101A100010E0201DFEF732FDE06A2A6907FA00F1A6
:101A2000114329617A4900EB800001EB8000211D00
:101A3000E2E7EF6186F311884046AEE42DE9F0411C
:101A40008846044600F045FB5020EFF3118780F3F1
:101A50001188BFF34F8FBFF36F8F94F85810022097
:101A600084F85800606D401C6065012924D1674DE1
:101A7000286B012678B104F118016648FEF7DAFCFC
:101A8000E06A2968C96A884216D9B8F1000F12D0F5
:101A9000C8F8006010E0201DFEF7F0FCE06A2A693B
:101AA00006FA00F111432961594900EB800001EB6E
:101AB0008000211DE2E7EE6187F3118844E510B54F
:101AC00058B1044600F0D8FA94F85800022807D01C
:101AD000002400F0E2FA20461BE44C480468F1E7D9
:101AE000002084F858000124F3E72DE9F0470E4662
:101AF000DDE909841746824691009946089DA52292
:101B0000206B01F06FFE6FF00301206B01EB87018A
:101B1000084420F0070700202218315C82F83410B6
:101B2000315C11B1401C1028F6D3002684F84360C4
:101B3000202D00D31F25E562C4E91356201DFEF7B2
:101B400076FC04F11800FEF772FC2461C5F1200058
:101B50006462A061666584F858604A46514638461A
:101B600000F036FA2060B8F1000F01D0C8F800404C
:101B700013E42648416B096829B1416BC968C968FB
:101B80004968816270474FF0FF31FAE710B50446AB
:101B9000006B00F023FB2046BDE8104000F01EBBA8
:101BA0001C4B4269002128339A4205D1806A194AA8
:101BB000904201D000B901210846704770B5154E1A
:101BC000124D14361CE0FFF7CCF9306820B1002428
:101BD000FFF74FF9A4B901E00124F9E700F04CFA4E
:101BE000F068C468201DFEF749FCA868401EA86084
:101BF0006868401E686000F050FA2046FFF7C6FF94
:101C000068680028DFD170BD04ED00E014000020FA
:101C100028010020D003002070B500244160E04D71
:101C20000061914206D8D11A8269914206D2011D03
:101C3000286907E09A4203D2994201D3012403E0C4
:101C4000011DE868FEF702FC204670BD2DE9FF414A
:101C5000D34D1F4603462C6800200A9E002C0ED050
:101C60008DE80E0006290FDAFFF7DCFC02284FF0A2
:101C7000000307D0002269462868FEF7F5FC04B08F
:101C8000BDE8F0813246F6E700233A466946204631
:101C9000FEF74AFEF3E730B587B0C14D41E0019849
:101CA000002806DADDE90301029A9047019800282E
:101CB00037DB039C606910B1201DFEF7DFFB05A830
:101CC00000F0E5F8024601980A282AD2DFE800F081
:101CD000050505291E260505291E0298A16903464A
:101CE00001442046FFF798FFD8B1616A2046884733
:101CF000E069012815D1002000900298A169002315
:101D0000421819462046FFF7A1FF0AE00298A06199
:101D1000811813462046FFF77FFF02E0204600F0BF
:101D20005DFA00231A4601A92868FEF754FD002831
:101D3000B5D107B030BD9A4CE068016839B10021D7
:101D400039B1002000F0B5F8FFF7A5FFF4E7012155
:101D5000F6E7C0680068F5E710B500F08DF9904C23
:101D60002068A0B98F48FEF757FB8E481430FEF765
:101D700053FB8C48E06014302061002210210520C4
:101D8000FEF7BCFB206010B187A1FEF7DFFEBDE8C7
:101D9000104000F082B91CB50024FFF7DDFF804839
:101DA000006860B17E491F20091DCDE900010023B4
:101DB0004FF482727EA18048FEF7A4FF04462046BD
:101DC0001CBD2DE9F04706461F46154688462C20C7
:101DD000DDF8209000F0B8F904000BD0FFF7BCFF4D
:101DE00004F11C01C4F81880266081E8A002201DBF
:101DF000FEF71DFB2046BDE8F08769484068704744
:101E000080697047406870470068704710B50446A5
:101E100000F032F9606908B1012400E0002400F00C
:101E20003CF9204610BD10B5044600F025F9246A9F
:101E300000F033F9204610BD70B50D46044600F0A1
:101E40001BF92562BDE8704000F027B97FB56FF03F
:101E5000010401AE009486E8070051481D460023A6
:101E60002A4669460068FEF75FFD04B070BD7FB585
:101E70004FF0FF3401AE009486E8070048481D4645
:101E800000232A4669460068FEF7EEFBEDE770B5D1
:101E90000546FFF736FA424E0446B068844203D244
:101EA00000F054F8012000E0002028602046B460D3
:101EB00070BD2DE9FC410E460546FFF752F801A81A
:101EC000FFF7E5FF0446019818B1FEF7D2FFBDE821
:101ED000FC81334FAEB138690068A0B30026291BDE
:101EE00032463868FEF753FEFEF7C3FF0028EED1F6
:101EF00032494FF080500860BFF34F8FBFF36F8FB0
:101F0000E5E7A542EBD8FEF7B4FFF8682646C068BF
:101F1000C468201DFEF7B2FAE06901280FD1A0695C
:101F20002B46411932462046FFF776FE38B1002095
:101F30000346014600902A462046FFF787FE616A65
:101F400020468847C3E7FFE70126C8E7F8B5144EE7
:101F50001EE0C068C4680568201DFEF78FFA616A3C
:101F600020468847E069012812D1A0692844A84288
:101F700006D924616060211DF068FEF767FA07E06A
:101F800000200346014600902A462046FFF75EFEE9
:101F9000F06801680029DCD13169C6E90310F8BD99
:101FA000500000200C040020546D7251000000000D
:101FB000546D722053766300371D000804ED00E075
:101FC000502080F31188BFF34F8FBFF36F8FFEE770
:101FD00010B5031F4FF080741C601B1F21F001011E
:101FE0001960191F414B0B60143940380A6010BD4D
:101FF0003F484FF47A710068B0FBF1F14FF0E020F8
:10200000491E41610721016170471CB539490878B3
:102010000190FF20087008788DF800009DF80000FE
:10202000354A00F0500010700720906007E090687B
:10203000401E90609DF8000040008DF800009DF863
:1020400000000006F3D4107A000200F4E060906013
:10205000019808702948016841F470010160016825
:1020600041F070410160FFF7C3FF00205060FEF7B0
:10207000C7F800201CBD7047502080F31188BFF3C3
:102080004F8FBFF36F8F1C494868401C4860012880
:1020900002D11A481C380068704717494868401E2A
:1020A000486001D180F31188704710B5502080F34B
:1020B0001188BFF34F8FBFF36F8FFEF794FE20B1EF
:1020C0000E494FF080501C390860002080F31188C1
:1020D00010BD10B5FEF7CAF8102803D300F1E020B8
:1020E00090F8F00305481438006810BDC11F0008BF
:1020F0000000002000E400E06400002020ED00E08B
:1021000030B55A4900E011460A688242FBD34B6859
:102110005C18844203D1406818444860084643680C
:102120001C18944209D1514C103C2468A24209D099
:1021300052681A4442600A6812680260814200D004
:10214000086030BD0460F9E72DE9F041054600263E
:10215000FEF707FF454F103F386808B900F065F8F3
:10216000F868054235D1A5B30835680704D005F0F5
:102170000700C0F1080005445DB37868854228D89F
:102180003A490846046801E0214604466068A842CE
:1021900002D220680028F7D13868844219D00E682E
:1021A0002068086060680836411B102904D960194E
:1021B00041606560FFF7A4FF61687868401A786045
:1021C000BA68904200D2B860F86801430020C4E9C0
:1021D0000001FEF74EFE3046BDE8F08170B50028E4
:1021E00019D0224DA0F10804103D6068E96808424A
:1021F00011D02268002A0ED188436060FEF7B1FE3C
:1022000060686968084468602046FFF779FFBDE8A8
:102210007040FEF72EBE70BD1448103840687047FD
:102220001248103880687047704711484FF4A04139
:10223000420706D0C01D0E4920F00700411AC1F523
:10224000A0410A4A00230144C2E900030839103AB8
:1022500021F0070111604B600B600B1AC0E90013FD
:1022600093604FF000405360D060704780000020C2
:102270003404002030BF704772B6704762B67047B2
:1022800041060748826942F00102826105484268BE
:1022900022F0E062426042680A43426070470000F8
:1022A000001002400000014010B50220FFF7E8FFD7
:1022B0000120FFF7E5FF4FF4407000F005FD00F04E
:1022C0000DF800F089F800F0D7F94FF4E13000F094
:1022D000F9FABDE8104000F08DBB000010B50420F5
:1022E00000F037FD39483A493A4A0068B0FBF1F34B
:1022F000B0FBF1F14FF47A7041431370012050802C
:102300004FF0E020026942F002020261416101697E
:1023100041F00101016110BD70B54FF0E0250021D1
:102320006C692C4AAB6912785043AA699A42FCD076
:1023300002D2A3EB020302E0A4EB020633441944E9
:1023400013468142F1D370BD10B50446FFF76AF918
:10235000014620480129408807D0844205D3B4FBB8
:10236000F0F0BDE81040FEF729BEB4FBF0F100FB31
:1023700011404FF47A71BDE810404843CCE770B586
:10238000054600244FF47A7603E03046FFF7C4FF99
:10239000641CAC42F9D370BD10B5FFF743F90128B6
:1023A00003D0BDE81040FFF780BE0A484168491CD1
:1023B000416010BD10B5FFF735F9012803D0BDE825
:1023C0001040FEF79EBF0348406810BD000000208B
:1023D00040420F008800002038B50121402000F065
:1023E0007AFE4FF48064ADF8004010208DF80300B1
:1023F0000320094D8DF802006946284600F089FB4C
:102400002146284600F0EFFB38BD0448D0F8A8115B
:10241000C943C0F8A81170470018014000002342CA
:1024200030B50023DD4A012411B1C2F8A04101E01A
:10243000C2F8A0310021C2F89431050602D5C2F8D5
:10244000984101E0C2F89831C2F894414006491C15
:10245000000EC9B20829EED3C2F8A04130BD70B554
:10246000CF4E002505F1B000C0B20021FFF7D8FF24
:1024700000210846FFF7D4FF00211020FFF7D0FF0E
:10248000002406EBC4000121405DFFF7C9FF641C76
:10249000E4B2802CF5D36D1CEDB2082DE2D370BDF3
:1024A00000B500218D20FFF7BBFF00211420FFF7AE
:1024B000B7FF0021AF205DF804EBB1E700B50021C4
:1024C0008D20FFF7ADFF00211020FFF7A9FF0021AD
:1024D000AE205DF804EBA3E710B40021B04B0A4630
:1024E000002003EBC004401CC0B262548028F8D323
:1024F000491CC9B20829F3D310BCB0E710B57F2836
:1025000016D83F2914D80723A3EBD10301F0070104
:10251000C1F107040121A140A14CDBB204EBC000D2
:10252000002AC25CC9B201D00A4300E08A43C25407
:1025300010BD2DE9F04F203A9C460D468246884654
:1025400002F0FF090026DDF824B02FE0BCF10C0FEB
:1025500008D0944901EB09100027845D200607D5B7
:102560005A4609E0904909EB490001EB8000F3E786
:10257000BBF1000F12D0002229465046FFF7BEFFE4
:1025800060066D1C040EEDB2A5EB0800604507D196
:102590000AF10100454600F0FF0A05E00122EBE7E1
:1025A0007F1CFFB2082FD9D3761CF6B26645CDD377
:1025B000BDE8F08F0346012000E05843491EC9B230
:1025C000FBD270472DE9FF4F81B00027DDF838B00E
:1025D0001D46924680463C464FF001094FEA5B0695
:1025E00027E0281B401EC1B20A20FFF7E3FFBAFB19
:1025F000F0F00A21B0FBF1F201FB120027B9691ECD
:102600008C4201DA48B101273030C2B206FB0480A7
:10261000C0B25B46CDF8009006E006FB0480C0B275
:102620005B462022CDF800900299FFF782FF641CE0
:10263000E4B2AC42D5D305B0BAE7F8B516460D46BC
:102640000446012714E07A2C02D900241035EDB29B
:102650003A2D03D900242546FFF73EFF0097327834
:102660000C2329462046FFF764FF0834E4B2761CA9
:1026700030780028E7D1F8BD38B50121402000F0BE
:102680002AFD4FF4F070ADF8000010208DF8030023
:1026900002208DF802006946444800F03AFA012011
:1026A00000F0C2FB002000F0B1FC002000F070FB45
:1026B000002000F0B9FB394C0020C4F89C016420D4
:1026C00004F5CE74FFF740FE012020600021AE200B
:1026D000FFF7A6FE0021D520FFF7A2FE0021502023
:1026E000FFF79EFE0021A820FFF79AFE00213F2061
:1026F000FFF796FE0021D320FFF792FE0021084647
:10270000FFF78EFE00214020FFF78AFE00218D207A
:10271000FFF786FE00211420FFF782FE0021202013
:10272000FFF77EFE00210220FFF77AFE0021A120A4
:10273000FFF776FE0021C020FFF772FE0021DA20AD
:10274000FFF76EFE00211220FFF76AFE00218120B4
:10275000FFF766FE0021EF20FFF762FE0021D9207F
:10276000FFF75EFE0021F120FFF75AFE0021DB207B
:10277000FFF756FE00213020FFF752FE0021A42073
:10278000FFF74EFE0021A620FFF74AFE0021AF20F2
:10279000FFF746FEFFF7A0FE38BD00000000234211
:1027A00034540020EE3E00087A3A00080018014038
:1027B00038B50121082000F08EFC4FF48064ADF89C
:1027C000004010208DF8030003203B4D8DF80200DF
:1027D0006946284600F09DF92146284600F003FA94
:1027E00038BD36480068AFF300802DE9FC5FDFF8A4
:1027F000CCB005460BF1040B58E0A1F141006D1C73
:10280000062806D80BEB8100A0F58050D0F8FC6EAE
:102810000BE0A1F16100062806D80BEB8100A0F5C2
:102820008050D0F8986E00E000262A78002A40D028
:10283000303A6D1C0A2A02D34FF4C87201E0C82056
:1028400042432878002834D06D1C2B2822D02C2815
:1028500003D02E2820D05F2820D00521002401910C
:10286000F6B102EB4200C0EBC218154F7008A1464A
:102870004FF0010A0090B4EBC80F14D2C7F8A8A11A
:102880000098FFF749FDC7F8A8910098FFF744FDAD
:102890003444F0E70021E1E71421DFE71E21DDE702
:1028A0001046FFF751FD0198FFF736FD2978002902
:1028B000A3D1BDE8FC9F0000000C01409000002067
:1028C0000080214230B50546012187B0084600F05E
:1028D00002FC0121102000F0FEFB0121880400F021
:1028E00003FC01213C4800F09FF94FF48060ADF8F3
:1028F000100003208DF812001820384C8DF81300BA
:1029000004A9204600F005F9E114ADF810104820A4
:102910008DF8130004A9204600F0FBF827208DF85D
:10292000140002208DF8150000248DF816400120B7
:102930008DF8170005A800F0CCF9ADF80440ADF80B
:102940000640ADF80840ADF80C400C20244CADF822
:102950000A0000956946204600F03CFC012240F246
:102960002551204600F0B3FC0121204600F0A5FCD3
:1029700007B030BD1A49091D0880081F01884906A3
:10298000FCD5704717A54FF4FA66002403E0285DD4
:10299000FFF7F0FF641C284600F0C0FE401CA04278
:1029A000F5D83046FFF7D0FCEFE738B50C4C40F2D5
:1029B0002551204600F042FD60B1204600F0D7FCD2
:1029C000C2B20C200346142100900846FFF7B1FD67
:1029D000FFF745FD002038BD100014000010014035
:1029E0000048004048736965682050696E67204A56
:1029F000750D0A0008B50121202000F06CFB4FF492
:102A00008070ADF8000048208DF8030003208DF899
:102A100002006946114800F07CF808BD104D08B569
:102A200000240646C5F8A8410C4F4FF49678384666
:102A300000F0CCF8C0050AD40023424604213046F9
:102A40000094FFF703F93046FFF7CBFE01E0C5F82D
:102A5000A8416420FFF778FCE9E70000001401407A
:102A6000008021428F4910B5884206D101210420FF
:102A700000F043FB002104203BE08B49884206D153
:102A80000121082000F039FB0021082031E08749AE
:102A9000884206D10121102000F02FFB00211020D8
:102AA00027E08349884206D10121202000F025FB40
:102AB000002120201DE07F49884206D101214020CD
:102AC00000F01BFB0021402013E07B49884206D127
:102AD0000121802000F011FB0021802009E07749CE
:102AE00088420AD184150121204600F006FB00210E
:102AF0002046BDE8104000F000BB10BD10B501211C
:102B0000084600F0FAFA0021BDE81040012000F06C
:102B1000F4BAF0B5CC78002204F00F03E40601D536
:102B20008C7823430C784FF00F0C14F0FF0F4FF00C
:102B3000010E1BD005680E880EFA02F42640A6424C
:102B400010D196000CFA06F725EA070703FA06F5F6
:102B5000CE783D43282E02D0482E02D002E04461B8
:102B600000E00461521C082AE5D305600A88FF2AA8
:102B70001CD94468002202F108060EFA06F50E88F8
:102B80002E40AE420ED196000CFA06F7BC4303FA73
:102B900006F7CE783C43282E00D14561CE78482EEA
:102BA00000D10561521C082AE5D34460F0BD4FF600
:102BB000FF710180022181700421C17070470246BB
:102BC000002092680A4200D001207047806880B2DD
:102BD000704702460020D2680A4200D001207047A8
:102BE000C06880B2704701617047416170470AB1A7
:102BF0000161704741617047C160704741F48032A4
:102C00008261816182618169806970472C4B10B556
:102C10001A684FF68074224042EA00100843186098
:102C200010BD2849C8617047F0B5254C002801DA6D
:102C3000E36900E06368450D2E0185B2C0F30157DA
:102C4000B540C0F30342032F05D0C6020AD50326C0
:102C50009640B34307E023F07062636823F070632B
:102C6000636002E0AB4343F0706201B12A43002885
:102C700001DAE261F0BD6260F0BD10B58A0721F0B3
:102C800003040F49120F21440F238C6893409C4387
:102C90008C608B68904003438B6010BD0949C1F87C
:102CA000DC00704700080140000C014000100140AA
:102CB0000014014000180140001C014000200140A8
:102CC00000000140000020422849084328490860CC
:102CD000704730B50F23C27801780125F2B1244A3C
:102CE000126801F1E02102F4E062C2F5E062120A2A
:102CF000C2F10404D3404278A24084781C401443BB
:102D0000220181F80024007800F01F018D40400965
:102D1000800000F1E020C0F8005130BD01F01F003C
:102D200085404809800000F1E020C0F8805130BDA6
:102D3000104A114001430E48001F016070470C4AC1
:102D4000121D0029116801D0014300E08143116088
:102D500070474FF0E0210428086903D020F00400F8
:102D60000861704740F00400FAE700000000FA052F
:102D70000CED00E080FFFF1F10B5012000F0CFF93F
:102D8000BDE81040002000F0CAB91F490860704734
:102D90001D49091F086070471B498431086070474E
:102DA0001A4A118821F46071014311807047174A53
:102DB000118821F07F01014311807047134A08B543
:102DC0002C3A10440090016008BD104908B52C3918
:102DD00008440090008808BD0B489C300068C0B2D1
:102DE00070470A480830018841F0010101807047AE
:102DF0000548A0300068C0B2704704480830018818
:102E000041F002010180704704860D422C6C0040A5
:102E100010B501210C07204600F078F92046BDE8E6
:102E20001040002100F072B9214908627047204922
:102E3000086170471F4A116821F0E00101431160E9
:102E400070471B49C1F8A00070471A4B1A6822F05E
:102E5000030202431A601848026842F0040202604A
:102E6000012905D020BF016821F0040101607047ED
:102E700030BFF8E70F48016841F0040101600168C4
:102E800041F0020101600C48016841F00401016059
:102E900030BF7047074A0146002052680A4200D0FE
:102EA0000120704703490A6842EA800008607047C1
:102EB00000000E420070004010ED00E0A5480168DF
:102EC00041F0010101604168A34A1140416001687D
:102ED000A24A11400160016821F48021016041682B
:102EE00021F4FE0141604FF41F0181607047994950
:102EF0000A6822F480320A600A6822F480220A609A
:102F0000B0F5803F07D0B0F5802F03D1086840F4BA
:102F1000A02008607047086840F48030F9E7034655
:102F2000002059098B4A01290AD002290AD0516A86
:102F300003F01F02012393400B4200D00120704791
:102F40001168F5E7116AF3E718B500204FF4A064A3
:102F500000903120FFF7E3FF0099491C0091A14246
:102F600001D00028F5D03120FFF7D9FF002800D08C
:102F7000012018BD774A116821F0F80141EAC0002C
:102F800010607047764908607047724B5A68084372
:102F900022F47C12104358607047714908667047EC
:102FA0006C4A516821F00301014351607047694840
:102FB000406800F00C007047664A516821F0F0014B
:102FC000014351607047634A516821F4E061014355
:102FD000516070475F4A516821F4605141EAC00076
:102FE000506070475B4A0029517A01D0014300E0EC
:102FF0008143517270475A49C1F8D8007047554A09
:10300000516821F440410143516070475149002209
:1030100081F8202081F82020012802D0042802D144
:10302000052081F8200070474E49086070474949E3
:103030000A6A02430A6270474A4944390860704785
:1030400030B5444A5168484B11F00C0103D00429B3
:1030500001D0082901D0036012E05168536801F4DF
:1030600070114FF0020413F4803F04EB914102D041
:1030700053689B0301D53D4B00E03B4B5943016036
:1030800051680F2303EA1111394B5C5C0168E14080
:1030900041605468072505EA14241C5D21FA04F4F4
:1030A0008460546805EAD4241B5DD940C16052682D
:1030B000032303EA92322E4B1B1F9A5CB1FBF2F101
:1030C000016130BD234A0029516901D0014300E06C
:1030D0008143516170471F4A0029916901D0014322
:1030E00000E08143916170471A4A0029D16901D0FB
:1030F000014300E08143D1617047164A0029D1683D
:1031000001D0014300E08143D1607047114A00299A
:10311000116901D0014300E08143116170471149F9
:103120004039086070470E49C86470470949C87142
:1031300070470848416A41F0807141627047054A12
:103140000146002092680A4200D0012070470149E0
:1031500088727047001002400000FFF8FFFFF6FE83
:10316000000042428004424200127A0000093D0001
:10317000D0000020C44910B588420AD101218C0337
:103180002046FFF7BAFF2046BDE810400021FFF7B8
:10319000B4BFBE49884202D101214C0410E0BC49B1
:1031A000884202D101218C040AE0BA49884202D146
:1031B0000121CC0404E0B84988420AD101210C0560
:1031C0002046FFF7A3FF2046BDE810400021FFF78F
:1031D0009DBF10BD30B50446008A85B00D464CF643
:1031E000FF710840E98801432182A0894EF6F3115E
:1031F0000840A9882A8911436A8902431143A181A1
:10320000A08A4FF6FF410840A9890143A182684680
:10321000FFF716FF9C48844201D1039800E0029812
:10322000A189090400EBC00101EB0010296801D558
:10323000490000E08900B0FBF1F06422B0FBF2F13C
:1032400009010B096FF018056B4300EB8300A3899C
:103250001D044FF0320306D503EBC000B0FBF2F0C3
:1032600000F0070005E003EB0010B0FBF2F000F007
:103270000F000843208105B030BD4FF416510160A6
:1032800000218180C18001810C22428181817047AF
:1032900010B5028A4FF2FF031A400B884C88234373
:1032A0008C88C9880C4323431343038210BD00213B
:1032B000018041808180C18070470029818902D0CE
:1032C00041F4005101E021F400518181704710B5B3
:1032D000C1F3421301F01F040121A140012B07D0CB
:1032E000022B07D01430002A026805D00A4304E0FC
:1032F0000C30F8E71030F6E78A43026010BD002A70
:10330000828A01D00A4300E08A4382827047028A9F
:1033100022F00F020282028A0A43028270478289E7
:1033200022F40062828182890A43828170470029E7
:10333000818902D041F0020101E021F00201818186
:103340007047028A22F020020282028A0A43028225
:1033500070470029018A02D041F4804101E021F444
:10336000804101827047C1F30801818070478088E5
:10337000C0F308007047818941F0010181817047E5
:10338000028BD2B20283028B42EA01210183704791
:10339000028B02F47F420283028B0A43028370474E
:1033A0000029818A02D041F0200101E021F02001B2
:1033B000818270470029818A02D041F0100101E02A
:1033C00021F01001818270470029818A02D041F0EA
:1033D000080101E021F008018182704700298189FC
:1033E00002D041F4004101E0C1F30E018181704738
:1033F0000029818A02D041F4006101E021F40061DA
:1034000081827047828A22F004028282828A0A4381
:10341000828270470029818A02D041F0020101E0D6
:1034200021F00201818270470246002012880A4280
:1034300000D001207047C9430180704770B501F08A
:103440001F0501260024C1F3421306FA05F2012BE1
:103450000FD0022B0FD0838A4FEA1121008813422C
:1034600006FA01F600EA060001D000B10124204668
:1034700070BD8389F0E7038AEEE70A0A01219140D3
:10348000C9430180704700000038014000440040FB
:1034900000480040004C0040005000407CB505460C
:1034A000FDF72FFF0024244E0246009423460121FD
:1034B0007068FEF7CBFBFEF7DFFD0420CDE90004CA
:1034C000002380221DA12048FDF71CFC0320CDE92C
:1034D00000042B4680221DA11F48FDF713FC306815
:1034E000FDF73BFCBDE87C40FEF7D7BD1CB5FEF701
:1034F000DBFEFFF75DF94FF4E130FFF7E3F9FFF78B
:1035000079FA16480090002301224FF47A7114A032
:10351000FEF757FC084903460A4648600421CDE9F6
:1035200000128A0111A1AFF28B00FDF7EBFBFDF752
:10353000B7FE00201CBD0000E00000207561727421
:103540005F7461736B000000852900084255545474
:103550004F4E5F7461736B001D2A00080B24000836
:103560004C656454696D657200000000737461728B
:10357000745F7461736B00000FB41CB5074B06AA2F
:103580007B4469460090059800F095F90020694653
:1035900000F0A4F91CBC5DF814FB00005903000006
:1035A0002DE9F0410E460446002020622046E168E5
:1035B000884730B3252805D0D4E901219047206AF7
:1035C000401CF2E7E168204600278847050018D034
:1035D000A5F14100192802D820354FF40067324682
:1035E000294620462760FCF7DDFD40B1012804D0C4
:1035F000F61D26F007060836D8E7361DD6E728461A
:10360000DAE7206ABDE8F08170B50C460546012A6C
:1036100005D02878800600D5EA69002302E001235E
:1036200005E05B1C934202D2E05C0028F9D1A86956
:10363000E618C01AA861286A184428622846AFF321
:10364000008004E0D5E9012114F8010B9047B44251
:10365000F8D32846AFF3008070BD00002DE9F0419B
:103660000646002410687529314616A510D0AFF320
:103670000080002802DA404213A507E031688A077B
:1036800001D512A502E0490704D511A5012401E0E6
:10369000AFF3008000210A2206F1240709E0B0FB05
:1036A000F2FCB0FBF2F302FB1C00303078541846F9
:1036B000491C0028F3D123462A463046BDE8F04194
:1036C00000F09BB8000000002D0000002B0000005F
:1036D0002000000040EA0103024630B59B0710D1EC
:1036E0004FF0013400E008C208C91D1B9D4315EAD4
:1036F000C41FF8D013F0FF0102F8011B0DD01B0A04
:10370000F8E711F8013B002B02F8013B05D011F856
:10371000013B002B02F8013BF3D130BD10B5431C37
:1037200002E010F8011B71B18107FAD14FF00132AC
:1037300002C88C1A8C4314EAC211F9D0C01A0A06C6
:1037400003D0C01E10BDC01A10BD0A0401D0801ED7
:1037500010BD0902FCD0401E10BD032A40F230808B
:1037600010F0030C00F0158011F8013BBCF1020FC2
:10377000624498BF11F801CB00F8013B38BF11F843
:10378000013BA2F1040298BF00F801CB38BF00F85A
:10379000013B11F0030300F0BC80083AC0F0088040
:1037A00051F8043B083A51F804CBA0E80810F5E7BB
:1037B000121D5CBF51F8043B40F8043BAFF300809E
:1037C000D20724BF11F8013B11F801CB48BF11F813
:1037D000012B24BF00F8013B00F801CB48BF00F8E3
:1037E000012B704702F0FF0343EA032242EA024240
:1037F00000F0C3B87047704770472DE9F0470D4699
:1038000099469246044600F124080168880604D5CA
:10381000E06921F01001216000E00120A84201DDF3
:10382000471B00E00027A1697A1902EB0900081A7A
:10383000A0612078C00602D42046AFF300800026A5
:1038400008E0D4E901211AF806009047206A401CDC
:10385000761C20624E45F4DB2078C0060AD520464F
:10386000AFF3008006E0D4E9012130209047206AC0
:10387000401C2062381EA7F10107F4DC07E0D4E900
:10388000012118F805009047206A401C2062281E7C
:10389000A5F10105F3DC2046AFF300802078000697
:1038A00002D50220BDE8F0870120FBE701694A1C30
:1038B00002610878704700B58FB0CDE90131002171
:1038C000059105497944CDE9031011466846FFF793
:1038D00067FE0FB000BD0000E5FFFFFF0A6802F8B9
:1038E000010B0A60704710B5436913B1AFF3008054
:1038F00001E0FFF789FE012010BD127800F12401DC
:103900000A7000224A700122EDE711684FF0FF3281
:10391000E9E710B5203AC0F00B80B1E81850203A22
:10392000A0E81850B1E81850A0E81850BFF4F5AF5F
:103930005FEA027C24BFB1E81850A0E8185044BFE9
:1039400018C918C0BDE810405FEA827C24BF51F856
:10395000043B40F8043B08BF7047D20728BF31F84A
:10396000023B48BF11F8012B28BF20F8023B48BF9B
:1039700000F8012B70474FF000020429C0F01280BC
:1039800010F0030C00F01B80CCF1040CBCF1020F12
:1039900018BF00F8012BA8BF20F8022BA1EB0C01E7
:1039A00000F00DB85FEAC17C24BF00F8012B00F8DD
:1039B000012B48BF00F8012B70474FF0000200B503
:1039C000134694469646203922BFA0E80C50A0E842
:1039D0000C50B1F12001BFF4F7AF090728BFA0E8F0
:1039E0000C5048BF0CC05DF804EB890028BF40F8BC
:1039F000042B08BF704748BF20F8022B11F0804FFE
:103A000018BF00F8012B7047754600F02BF8AE4642
:103A100005006946534620F00700854618B020B5DA
:103A2000FCF736FCBDE820404FF000064FF00007E1
:103A30004FF000084FF0000B21F00701AC46ACE856
:103A4000C009ACE8C009ACE8C009ACE8C0098D46C3
:103A5000704710B50446AFF300802046BDE8104023
:103A6000FCF7B5BB004870473458002001491820C6
:103A7000ABBEFEE726000200704700000000000019
:103A8000000000000000000000003F4000000000B7
:103A9000000000003000400030004000000009003D
:103AA0000BC03D000BC03D00090018C024407FE062
:103AB000224031800000180024C01B000D803240DD
:103AC000018003801C4027401C80074000401000FC
:103AD0006000000000000000000000000000000086
:103AE0001F80204040200000402020401F80000018
:103AF0000000090006001F80060009000000040005
:103B000004003F800400040000000010006000007A
:103B10000000000000000400040004000400040091
:103B20000000000000400000000000000000002035
:103B300001C006003800400000001F8020402040E7
:103B400020401F800000000010403FC000400000E7
:103B5000000018C02140224024401840000010807E
:103B60002040244024401B80000002000D00110072
:103B70003FC0014000003C8024402440244023807A
:103B800000001F80244024403440038000003000A7
:103B9000200027C03800200000001B802440244063
:103BA00024401B8000001C0022C0224022401F80B5
:103BB00000000000000008400000000000000000BD
:103BC00000000460000000000000000004000A0083
:103BD0001100208040400900090009000900090087
:103BE000000000004040208011000A00040018007E
:103BF000200023402400180000001F8020402740A0
:103C000029401F400000004007C039000F0001C0DC
:103C1000004020403FC0244024401B8000001F8003
:103C20002040204020403080000020403FC0204005
:103C300020401F80000020403FC024402E4030C064
:103C4000000020403FC024402E00300000000F0044
:103C50001080204022403380020020403FC00400FA
:103C600004003FC02040204020403FC02040204072
:103C700000000060202020203FC0200020002040C5
:103C80003FC024400B0030C0204020403FC02040B7
:103C90000040004000C03FC03C0003C03C003FC0AB
:103CA000000020403FC00C4023003FC020001F8088
:103CB0002040204020401F80000020403FC0244082
:103CC0002400180000001F802140214020E01FA098
:103CD000000020403FC02440260019C0004018C00A
:103CE00024402440224031800000300020403FC06A
:103CF00020403000000020003F80004000403F8016
:103D0000200020003E0001C00700380020003800DD
:103D100007C03C0007C038000000204039C0060042
:103D200039C0204000002000384007C03840200043
:103D30000000304021C02640384020C00000000074
:103D400000007FE0402040200000000070000C00D8
:103D50000380004000000000402040207FE0000081
:103D600000000000200040002000000000000010C3
:103D700000100010001000100010000000004000B3
:103D8000000000000000000002800540054003C064
:103D9000004020003FC004400440038000000000B9
:103DA00003800440044006400000000003800440FB
:103DB00024403FC000400000038005400540034010
:103DC0000000000004401FC02440244020000000E8
:103DD00002E0055005500650042020403FC004403A
:103DE000040003C000400000044027C00040000061
:103DF000000000100010041027E000000000204028
:103E00003FC00140070004C00440204020403FC0A4
:103E100000400040000007C0040007C0040003C0C9
:103E20000000044007C00440040003C0004000003C
:103E300003800440044003800000041007F0045095
:103E4000044003800000000003800440045007F099
:103E50000010044007C002400400040000000000FD
:103E600006400540054004C00000000004001F801B
:103E7000044000400000040007800040044007C0E8
:103E800000400400070004C0018006000400060092
:103E900001C0070001C006000000044006C0010088
:103EA00006C0044000000410071004E00180060072
:103EB00004000000044005C006400440000000006B
:103EC000000004007BE04020000000000000000033
:103ED000FFF000000000000040207BE00400000034
:103EE0000000400080004000200020004000000052
:103EF00000000000000000000000000000000000C2
:103F0000000000001FCC000C0000000000000000BA
:103F1000080030006000080030006000000002204F
:103F200003FC1E20022003FC1E20022000000000D3
:103F30000E1811043FFF10840C78000000000F00E1
:103F400010840F3800C007781884007800000078CB
:103F50000F8410C411240E9800E4008400080800A7
:103F60006800700000000000000000000000000079
:103F70000000000007E018182004400200000000C4
:103F800040022004181807E0000000000000024072
:103F9000024001800FF001800240024000000080DA
:103FA000008000800FF80080008000800000000189
:103FB000000D000E000000000000000000000000E6
:103FC0000080008000800080008000800080000071
:103FD000000C000C000000000000000000000000C9
:103FE0000006001800600180060018002000000094
:103FF00007F0080810041004080807F0000000008B
:10400000080408041FFC0004000400000000000075
:104010000E0C10141024104411840E0C000000002B
:104020000C1810041104110412880C700000000018
:1040300000E00320042408241FFC002400000000EA
:104040001F981084110411041088107000000000E3
:1040500007F008881104110418880070000000009F
:104060001C00100010FC13001C00100000000000D9
:104070000E3811441084108411440E3800000000E2
:104080000700088C10441044088807F00000000066
:1040900000000000030C030C000000000000000002
:1040A0000000000101060000000000000000000008
:1040B00000800140022004100808100400000220C3
:1040C0000220022002200220022002200000000024
:1040D00010040808041002200140008000000000C5
:1040E0000E001200100C106C10800F00000003E096
:1040F0000C1813E4142417C4082807D00000000487
:10410000003C03C41C40074000E4001C00041004F1
:104110001FFC1104110411040E880070000003E05C
:104120000C1810041004100410081C1000001004D7
:104130001FFC100410041004080807F0000010040D
:104140001FFC1104110417C4100408180000100407
:104150001FFC1104110017C010000800000003E04C
:104160000C181004100410441C78004000001004C7
:104170001FFC10840080008010841FFC10040000CD
:10418000100410041FFC10041004000000000003C1
:104190000001100110011FFE1000100000001004AB
:1041A0001FFC110403801464181C10040000100488
:1041B0001FFC1004000400040004000C00001004A4
:1041C0001FFC1F0000FC1F001FFC10040000100457
:1041D0001FFC0C04030000E010181FFC100007F087
:1041E0000808100410041004080807F00000100468
:1041F0001FFC10841080108010800F00000007F05A
:10420000081810241024101C080A07F200001004DB
:104210001FFC1104110011C011300E0C000400002D
:104220000E1C11041084108410441C380000180067
:10423000100010041FFC10041000180000001000F3
:104240001FF810040004000410041FF810001000F0
:104250001E0011E0001C007013801C0010001FC025
:10426000103C00E01F0000E0103C1FC000001004E4
:10427000180C163401C001C01634180C10041000BC
:104280001C00130400FC13041C00100000000804B0
:10429000101C1064108413041C041018000000008B
:1042A000000000007FFE40024002400200000000CB
:1042B00030000C0003800060001C000300000000C0
:1042C0004002400240027FFE0000000000000000AB
:1042D00000002000400040004000200000000001DD
:1042E00000010001000100010001000100010000C7
:1042F000400040002000000000000000000000001E
:104300000098012401440144014400FC0004100011
:104310001FFC0088010401040088007000000000F8
:1043200000700088010401040104008800000000FE
:10433000007000880104010411081FFC0004000043
:1043400000F8014401440144014400C80000000099
:10435000010401040FFC11041104110018000000F5
:1043600000D601290129012901C901060000100414
:104370001FFC008401000100010400FC0004000097
:104380000104190419FC00040004000000000000EE
:10439000000300010101190119FE000000001004D2
:1043A0001FFC0024004001B4010C010400000000C7
:1043B000100410041FFC00040004000000000104AD
:1043C00001FC0104010001FC0104010000FC0104E6
:1043D00001FC008401000100010400FC0004000055
:1043E00000F8010401040104010400F800000101C7
:1043F00001FF008501040104008800700000000036
:104400000070008801040104010501FF000101049E
:10441000010401FC0084010401000180000000008F
:1044200000CC012401240124012401980000000093
:104430000100010007F80104010400000000010070
:1044400001F8000400040004010801FC000401005C
:1044500001800170000C001001600180010001F07A
:10446000010C003001C00030010C01F0010000001F
:104470000104018C00740170018C01040000010131
:1044800001810171000E001801600180010000002F
:104490000184010C013401440184010C000000007E
:1044A00000000000000001003EFC4002400200004D
:1044B000000000000000FFFF0000000000000000FE
:1044C000400240023EFC010000000000000000002D
:1044D00060008000800040004000200020000000BC
:1044E00065322C64322C65322C64322C65322C42BD
:1044F000322C64322C63322C41325F43322C4532F1
:104500002C41322C42325F45322C47322C42322C25
:1045100063345F45322C65322C64322C65322C6456
:10452000322C65322C42322C64322C63322C4132D4
:104530005F43322C45322C41322C42325F45322CC3
:1045400063322C42322C4134000000006C450008DC
:1045500000000020E80000006C010008544600083C
:10456000E8000020B05D00008801000800A24A04B5
:104570000000000000000000010203040607080913
:10458000000000000000000000000000000000002B
:10459000000000000000000000000000000000001B
:1045A000000000000000000000000000000000000B
:1045B00000000000000000000000000000000000FB
:1045C00000000000000000000000000000000000EB
:1045D00000000000AAAAAAAA000000000000000033
:1045E00000000000000000000000000000000000CB
:1045F000000000000000000000000000E04400088F
:10460000E0080000E8070000E80E0000490D000087
:10461000D60B0000310B0000F70900007004000009
:10462000F403000078070000A7060000ED05000075
:1046300098050000FB0400000204060800000000CA
:104640000102030401020304060708090000000038
:044650000000000066
:0400000508000131BD
:00000001FF
